{
  "contractName": "Mortal",
  "abi": [
    {
      "inputs": [],
      "name": "destroy",
      "outputs": [],
      "stateMutability": "nonpayable",
      "type": "function"
    }
  ],
  "bytecode": "0x6080604052336000806101000a81548173ffffffffffffffffffffffffffffffffffffffff021916908373ffffffffffffffffffffffffffffffffffffffff16021790555061017d806100536000396000f3fe608060405234801561001057600080fd5b506004361061002b5760003560e01c806383197ef014610030575b600080fd5b61003861003a565b005b6000809054906101000a900473ffffffffffffffffffffffffffffffffffffffff1673ffffffffffffffffffffffffffffffffffffffff163373ffffffffffffffffffffffffffffffffffffffff16146100df576040517f08c379a000000000000000000000000000000000000000000000000000000000815260040180806020018281038252602e81526020018061011a602e913960400191505060405180910390fd5b6000809054906101000a900473ffffffffffffffffffffffffffffffffffffffff1673ffffffffffffffffffffffffffffffffffffffff16fffe4f6e6c792074686520636f6e7472616374206f776e65722063616e2063616c6c20746869732066756e6374696f6ea2646970667358221220ad8d780500a1215bf2eca8d5550eea94ad3a39dfdd78e3b1579406863c941ec464736f6c63430006040033",
  "source": "// SPDX-License-Identifier: CC-BY-SA-4.0\r\n\r\n// Version of Solidity compiler this program was written for\r\npragma solidity ^0.6.4;\r\n\r\ncontract Owned {\r\n    address payable owner;\r\n\r\n    // Contract constructor: set owner\r\n    constructor() public {\r\n        owner = msg.sender;\r\n    }\r\n\r\n    // Access control modifier\r\n    modifier onlyOwner {\r\n        require(msg.sender == owner, \"Only the contract owner can call this function\");\r\n        _;\r\n    }\r\n}\r\n\r\ncontract Mortal is Owned {\r\n    // Contract destructor\r\n    function destroy() public onlyOwner {\r\n        selfdestruct(owner);\r\n    }\r\n}\r\n\r\ncontract Faucet is Mortal {\r\n    event Withdrawal(address indexed to, uint amount);\r\n    event Deposit(address indexed from, uint amount);\r\n\r\n    // Accept any incoming amount\r\n    receive() external payable {\r\n        emit Deposit(msg.sender, msg.value);\r\n    }\r\n\r\n    // Give out ether to anyone who asks\r\n    function withdraw(uint withdraw_amount) public {\r\n        // Limit withdrawal amount\r\n        require(withdraw_amount <= 0.1 ether);\r\n\r\n        require(\r\n            address(this).balance >= withdraw_amount,\r\n            \"Insufficient balance in faucet for withdrawal request\"\r\n        );\r\n\r\n        // Send the amount to the address that requested it\r\n        msg.sender.transfer(withdraw_amount);\r\n\r\n        emit Withdrawal(msg.sender, withdraw_amount);\r\n    }\r\n}",
  "sourcePath": "C:\\Lorenzo\\GitHub\\faucet\\contracts\\faucet.sol",
  "compiler": {
    "name": "solc",
    "version": "0.6.4+commit.1dca32f3.Emscripten.clang"
  },
  "schemaVersion": "3.4.13",
  "updatedAt": "2023-05-08T17:50:53.921Z",
  "devdoc": {
    "methods": {}
  },
  "userdoc": {
    "methods": {}
  }
}